:020000040800F2
:10000000D81100209D0100084B0E0008A302000833
:10001000490E0008570300083510000800000000D2
:10002000000000000000000000000000E90E0008D1
:100030005903000800000000EF010008EB0E000863
:10004000B7010008B7010008B7010008B7010008B0
:10005000B7010008B7010008B7010008B7010008A0
:10006000B7010008B7010008B7010008B701000890
:10007000B7010008B7010008B7010008B701000880
:10008000B7010008B7010008B7010008B701000870
:10009000B7010008B7010008B7010008B701000860
:1000A000B7010008B7010008B7010008B701000850
:1000B000B7010008B7010008B7010008B701000840
:1000C000B7010008B7010008B7010008B701000830
:1000D000B7010008B7010008B7010008B701000820
:1000E000B7010008B7010008B7010008B701000810
:1000F000B7010008B7010008B7010008B701000800
:10010000B7010008B7010008B7010008B7010008EF
:10011000B7010008B7010008B7010008B7010008DF
:10012000B7010008B7010008B7010008B7010008CF
:10013000B7010008B7010008B7010008B7010008BF
:10014000B7010008B7010008B7010008B7010008AF
:10015000B7010008B7010008B7010008B70100089F
:10016000B7010008B7010008B7010008B70100088F
:10017000B7010008B70100080000000000000000FF
:10018000B7010008B7010008DFF80CD000F0CAF88A
:100190000048004749030008D8110020064880475E
:1001A00006480047FEE7FEE7FEE7FEE7FEE7FEE75C
:1001B000FEE7FEE7FEE7FEE7F10F00088901000811
:1001C000EFF3108072B6704780F310887047434A8F
:1001D0001368012B04D04FF001031360404A1060F4
:1001E000404A116040484FF0805101607047EFF382
:1001F000108272B63948016851B34FF000010160B6
:100200003748016891B1EFF309811EF0100F08BF64
:1002100021ED108B21E9F00F4FF000041EF0100FBC
:1002200008BF012441F8044D006801602D490968A8
:10023000096808C9B1E8F00F002B18BF00F05AB8E0
:1002400081F309884EF0100E002B18BF2EF0100E0F
:1002500082F310884EF0040E704722490860EFF3D5
:10026000148222F0040282F314881D494FF000002A
:1002700008601A494FF0010008601C484FF47F01E4
:10028000D0F8002041EA0201016017484FF0805188
:10029000016017480068006880F3088861B662B69C
:1002A00070471EF0040F0CBFEFF30880EFF30980D6
:1002B00020E9F00F40F804ED40F804ED1EF0040FC3
:1002C0000CBF80F3088880F3098800B501F0C4F9F9
:1002D0005DF804EB4EF0040E704700007000002043
:1002E000680000206C00002004ED00E020ED00E03C
:1002F00008ED00E0B1EC088BB1EC08CBFFF7A0BF34
:10030000D2B201E000F8012B491EFBD27047002257
:10031000F6E710B513460A4604461946FFF7F0FF04
:10032000204610BD064C074D06E0E06840F0010392
:1003300094E8070098471034AC42F6D3FFF728FF43
:10034000602500088025000810B5FFF739FF02F08E
:1003500024F8002010BDFEE7704700002DE9F84F9B
:10036000DFF898B100234FF0010C4FF0030A4FF073
:100370000F090BF1040EB9E00CFA03F4224070D01F
:100380004D68022D01D0122D0ED1DD0800EB85083D
:10039000D8F820505E07F70E09FA07F6B5430E6944
:1003A000BE402E43C8F8206007685E0091F80480C4
:1003B0000AFA06F508F00308AF4308FA06F848EA17
:1003C0000708C0F800804F68012F05D0022F03D026
:1003D000112F01D0122F13D1D0F80880CF6828EA4E
:1003E0000508B74047EA08078760D0F804800F790E
:1003F00028EA0408C7F300179F4047EA0807476048
:10040000D1F804806FEA0807BF0706D1C76AA7437F
:10041000C8F3C0049C403C43C462C468AC438D68CC
:10042000B5402543C5604C68E4005ED5344C256E6C
:1004300045F001052566246E23F0030504F0010450
:100440000094304C2E19B4689D072F0F09FA07F558
:10045000AC43B0F1904F05D02B4DA84204D10125FB
:100460001CE042E0002519E0284DA84201D10225F8
:1004700014E0274DA84201D103250FE0254DA842E5
:1004800001D104250AE0244DA84201D1052505E04B
:10049000224DA84201D1062500E00725BD40254395
:1004A000B560DBF800405D464E689443F60300D526
:1004B00014432C60DEF8004075464E689443B60342
:1004C00000D514432C600D4D08352C684E689443BC
:1004D000F60200D514432C60084D0C352C684E688C
:1004E0009443B60200D514432C605B1C0A6832FAB0
:1004F00003F57FF441AF00F013B8000000040140A1
:1005000000100240000001400004004800080048BC
:10051000000C004800100048001400480018004873
:1005200018BCBDE8E08F0069084000D0012070478A
:100530000AB181617047816270470000014800681C
:10054000704700000400002010B50024032000F0D4
:1005500059F8002000F008F808B1012401E000F08B
:100560001BF8204610BD000070B5054609484FF441
:100570007A7100240068B0FBF1F000F0A1FB08B133
:10058000012404E000222946501E00F01BF82046FA
:1005900070BD000008000020094808B5016E41F058
:1005A00001010166016E01F001010091816D41F0D0
:1005B00080518165806D00F08050009008BD000082
:1005C00000100240F0B40E4B1B680C46C3F302232C
:1005D000C3F10705042D00D90425191D072901D2EF
:1005E000002300E0DB1E012606FA05F1491E21402A
:1005F00099409E40761E16403143F0BC00F026BC68
:100600000CED00E0064900F0070208684FF6FF0312
:10061000184040EA0220034A104308607047000077
:100620000CED00E00000FA051649B0F5007F0868FF
:10063000C0F3412009D0022805D0086820F4C0602A
:1006400040F480600860002070470128FBD00868F3
:1006500020F4C06040F4007008600B48322200684B
:1006600050430A4AB0FBF2F0401C00E0401E4A69C9
:10067000520501D50028F9D148694005E3D503208A
:1006800070470000007000400800002040420F004A
:100690000248006800F4C06070470000007000402D
:1006A0002DE9F0470F46050058D03F4E306800F066
:1006B0000700B84209D2306820F0070038433060A4
:1006C000306800F00700B84248D12878374CC0079E
:1006D0002CD06868032811D0022812D0216898B164
:1006E000490500293ADAA16821F003010143A1601C
:1006F000FFF724FF804641F2883910E02168890124
:10070000EFE721688903ECE78907EAE7FFF716FFBF
:10071000A0EB0801494502D90320BDE8F087A06895
:10072000696800F00C00B0EB810FEFD128788007EA
:1007300005D5A068A96820F0F0000843A0603068E3
:1007400000F00700B8420BD9306820F007003843AA
:100750003060306800F00700B84201D00120DCE7CB
:100760002878400705D5A068E96820F4E0600843D0
:10077000A0602878000706D5A068296920F4605099
:1007800040EAC100A06000F017F8A168084AC1F370
:100790000311515C01F01F01C84006490860BDE823
:1007A000F0470020FFF7E0BE0020024000100240AA
:1007B000EC2300080800002070B5254900231846E6
:1007C0008A68CC6812F00C0204F00306214C4FEA50
:1007D000640509D00C2A05D0042A26D0082A00D1A5
:1007E000284670BD012E10D10B681B0704D4D1F828
:1007F0009430C3F3032302E00B68C3F30313164ED4
:1008000056F823307AB10C2AEBD1C86800F0030205
:10081000C868C0F30210401C022A08D0032A09D07D
:10082000B3FBF0F008E0184670BD204670BDB4FB85
:10083000F0F001E0B5FBF0F0CA68C968C2F3062227
:100840005043C1F34161491C4900B0FBF1F070BD58
:10085000001002400024F400FC2300082DE9F843B6
:1008600005007CD0FD4CA06800F00C06E06800F0AC
:1008700003072878C00661D576B10C2E01D1012F6F
:100880000AD0A8690028206878D040F001002060D4
:10089000FFF754FE804659E02068800702D5A8691A
:1008A0000028DED0286A2168090703D5216801F0F5
:1008B000F00104E0D4F89410F02202EA1111884209
:1008C00015D900F0D3FA002849D1206840F008007B
:1008D00020602068296A20F0F000084320606068EA
:1008E000E96920F47F4040EA0120606015E020685B
:1008F00040F0080020602068296A20F0F0000843DA
:1009000020606068E96920F47F4040EA012060606F
:10091000286A00F0ABFA0028D6D1FFF74DFFA16896
:10092000CF4AC1F30311515C01F01F01C840CD490A
:1009300008600020FFF718FE00287DD12FE000BFDF
:10094000FFF7FCFDA0EB0800022876D8206880079E
:10095000F6D5206840F008002060206801E0BBE088
:100960000CE0296A20F0F000084320606068E96923
:1009700020F47F4040EA0120606010E020F0010098
:100980002060FFF7DBFD804606E000BFFFF7D6FDE5
:10099000A0EB08000228D8D820688007F6D4287871
:1009A000C00740D0082E18D00C2E01D1032F14D030
:1009B0006868B0F5803F17D0B0F5A02F206817D039
:1009C00020F480302060206820F480202060686857
:1009D000E0B1FFF7B3FD804614E02068800322D524
:1009E0006868002878D01EE0206840F48030EDE789
:1009F00040F480202060F7E7FFF7A0FDA0EB08009F
:100A00006428A2D820688003F6D50CE0FFF796FD95
:100A1000804605E0FFF792FDA0EB0800642894D81B
:100A200020688003F6D4287880073BD5042E11D0A7
:100A30000C2E04D1022F01E036E1A1E00AD0E868D3
:100A4000002820681ED040F480702060FFF776FDFB
:100A500007460CE0206840050CD5E8680028C1D0A6
:100A600008E000BFFFF76AFDC01B022893D820688A
:100A70004005F7D56068297C20F0F85040EA016015
:100A800060600FE020F480702060FFF757FD07469C
:100A900005E000BFFFF752FDC01B022870D8206898
:100AA0004005F7D42878000729D568690028D4F8CC
:100AB000940012D040F00100C4F89400FFF73EFD0E
:100AC000074604E0FFF73AFDC01B022858D8D4F8C7
:100AD00094008007F6D512E0EDE020F00100C4F8A4
:100AE0009400FFF72BFD074605E000BFFFF726FD4A
:100AF000C01B022844D8D4F894008007F6D4287884
:100B0000400768D5A06D0027C00008D4A06D40F054
:100B10008050A065A06D012700F0805000905248E1
:100B20000168C90512D40168814641F480710160F1
:100B3000FFF704FD804605E0FFF700FDA0EB08008D
:100B400002281DD8D9F80000C005F5D5A8680128ED
:100B500017D00528D4F8900018D020F00100C4F870
:100B60009000D4F8900020F0040000BFC4F890007A
:100B7000A86841F28839D0B1FFF7E0FC804611E067
:100B80006BE0D4F8900040F00100EFE740F0040083
:100B9000C4F89000F5E700BFFFF7D0FCA0EB080118
:100BA00049455AD8D4F890008007F5D50EE0FFF7F4
:100BB000C5FC804606E000BFFFF7C0FCA0EB0801C3
:100BC000494570D8D4F890008007F5D41FB1A06DC6
:100BD00020F08050A065A86AF0B30C2E6BD00228DC
:100BE000206820F08070206004D0206810F0205F22
:100BF00047D04AE0FFF7A2FC064604E0FFF79EFC60
:100C0000801B02284FD820688001F7D4286BE96A3E
:100C1000000110380843696BAA6B0902120941EA06
:100C200042410843A98F114A490802EB4151084348
:100C300095F840104908120102EB41610843E06059
:100C4000206840F080702060E06840F08070E060D4
:100C5000FFF774FC054610E02BE024E00010024092
:100C6000EC23000808000020007000400000E0FFB6
:100C7000FFF764FC401B022815D820688001F7D5D7
:100C800017E0E06820F00300E060E0680B490840EE
:100C9000E060FFF753FC054608E000BFFFF74EFC9D
:100CA000401B022802D90320BDE8F8832068800198
:100CB000F4D40020F8E70120F6E70000FFFFEEFE85
:100CC00010B5401EB0F1807F01D3012010BD4FF060
:100CD000E02460610F21601700F0B8F80020A061E7
:100CE00007202061002010BD30B587B01421684670
:100CF000FFF70DFB1648C16C41F01001C164C16CD7
:100D000001F010010591C16C41F00801C164C06C93
:100D1000104D00F008004FF4607405900022214649
:100D20002846FFF705FC0120CDE90040002402948D
:100D3000694628460394FFF711FB4FF4E060CDE9C4
:100D40000004694604480294FFF708FB07B030BD71
:100D50000010024000100048000C00487FB501223E
:100D60004FF460712548FFF7E3FB002224A12748D8
:100D700000F06AFB2548142403264FF40075A030C8
:100D800003948DE861000023214A22A1803800F0FD
:100D9000E1FF1E48203001F043F8204803948DE81D
:100DA000610000231E4A1FA1803800F0D3FF1B48BA
:100DB000803801F035F81D4803948DE86100002368
:100DC0001B4A1CA1803800F0C5FF1848803801F08C
:100DD00027F80520CDE902041849CDE90015174888
:100DE0000023174A17A1803800F0B4FF04B013485D
:100DF000BDE87040803801F013B8000000100048D2
:100E00006C65645F6576656E740000007400002098
:100E10008D1100086C65643100000000940300200F
:100E2000D11100086C656432000000001406002037
:100E3000191200086C65643300000000940800205B
:100E4000391100086B657900FEE770470907090E44
:100E5000002806DA00F00F0000F1E02080F8141DF1
:100E6000704700F1E02080F800147047F8B51C4D81
:100E700006460024A86DC00002D5FFF709FC0DE06E
:100E8000A86D40F08050A865A86D00F080500090DB
:100E9000FFF7FEFBA96D21F08051A965B0F5007F39
:100EA00004D0802E07D94FF003040AE0802E08D921
:100EB000A02E01D804E001D1022402E0702E00D15E
:100EC00001240848016821F00701214301600068FE
:100ED00000F00700A04201D00120F8BD0020F8BDBD
:100EE0000010024000200240704710B500F0DAFC0C
:100EF00001F026F8BDE8104000F0E2BC10B596B055
:100F000044216846FFF703FA142111A8FFF7FFF9FF
:100F10001020009000240120CDE9060460200890F4
:100F20000A946846FFF79AFC0F20CDE91104139448
:100F30001494002111A81594FFF7B2FB4FF4007030
:100F4000FFF772FB16B010BD70B5254908680007A1
:100F500004D4D1F89400C0F3032002E00868C0F381
:100F60000310204A52F82030886810F00C021E4806
:100F700007D01E4C042A06D06510082A05D00C2A7A
:100F800005D003601CE004601AE0056018E0CA6840
:100F900002F00306CA68C2F30212521C022E19D0D4
:100FA000032E1AD0B3FBF2F2CB68C3F306235343EC
:100FB000CA68C2F34162521C5200B3FBF2F20260F3
:100FC0008968084AC1F30311103A515C0268CA40AB
:100FD000026070BDB4FBF2F2E6E7B5FBF2F2E3E7C4
:100FE00000100240FC230008080000200024F40048
:100FF0000D48016841F4700101600C48016841F03E
:1010000001010160002181600268094B1A40026001
:101010008214C260026822F4802202608161024967
:10102000C00380390860704788ED00E0001002407E
:10103000FFFFF6EAFEE70000002807D00E4910F097
:10104000FF0F04D051FA80F00078401C704710F474
:101050007F4F04D0C0F30720085C0930704710F4BC
:101060007F0F04D0C0F30740085C1130704701EBDC
:1010700010600078193070472C24000802E008C87E
:10108000121F08C1002AFAD170477047002001E002
:1010900001C1121F002AFBD17047000003480168FC
:1010A000814201D00120704700207047500000208D
:1010B0002DE9FC411F460446DDE90831DDE90A65FA
:1010C000143040600060C4E90827C4E90A310A46C8
:1010D000232118461C3400F02FFCD4E903014218E8
:1010E000D4E901010D4B121F00F0BEFB2060A67673
:1010F00066760020A562E061E56260612076E065C9
:1011000020661C3C009023460190054A194604F1D4
:101110004C0000F087FF0020BDE8FC81591C00084E
:101120008F1E0008F0E905124A60D0E90012116034
:1011300040600060704700004FF48075104C114E05
:101140004FF480686F0029462046FFF7ECF950B154
:1011500039462046FFF7E7F938B141462046FFF708
:10116000E2F920B107E0802102E0294600E039469B
:10117000054800F0F5F9306800F007FEE3E70000ED
:10118000000C004800000020740000201CB50D4C2D
:101190000D4E01AD4FF0FF37012280212046FFF7B1
:1011A000C7F93B46052280210848009500F05BF90D
:1011B00020B9002280212046FFF7BAF9306800F0FC
:1011C000E4FDE9E700100048000000207400002062
:1011D0001CB50E4D0E4F01AE4FF0FF384FF480742A
:1011E000012221462846FFF7A3F94346052221465E
:1011F0000848009600F037F920B900222146284619
:10120000FFF796F9386800F0C0FDE9E700100048E4
:1012100000000020740000201CB50E4D0E4F01AEE2
:101220004FF0FF384FF40074012221462846FFF7A3
:101230007FF94346052221460848009600F013F93D
:1012400020B9002221462846FFF772F9386800F0DD
:101250009CFDE9E700100048000000207400002019
:1012600010B5FFF771F9FFF749FEFFF73DFDFFF7F6
:1012700075FD002010BD10B500F0CAF8BDE81040A3
:10128000FFF7EEBF2DE9F04F85B09946DDE90EA5D9
:10129000109C630602D5DFF814C103E0DFF80CC12F
:1012A000ACF1110CE30601D524F00104E30701D0F1
:1012B000302300E0202300260493A3070BD5002A47
:1012C00002DA2D26524206E0630701D52B2602E002
:1012D000230700D5202600234FF0300EEB461AB925
:1012E0008DF800E001230CE0B9F10A0F14D002F0F0
:1012F0000F0812091CF808800BF803805B1C002AF9
:10130000F2D1AB4200DD1D46AAEB050214F0110F2D
:101310004FF0200708D015E00A27B2FBF7F807FBCB
:101320001828B2FBF7F2E5E73EB1002A05DD521EB0
:1013300003E0884200D80770401CB2F1000CA2F113
:101340000102F6DC26B1884201D80670521E401C0C
:10135000E40605D508E0884201D8049C0470401CCE
:10136000141EA2F10102F6DC74462E466D1E9E424A
:101370000ADD884200D80470401CF6E7884201D894
:10138000E55C0570401C00E05C461D1EA3F10103F6
:10139000F4DC03E0884200D80770401C131EA2F161
:1013A0000102F7DC05B000F003B800003D2500089D
:1013B00030BCBDE8C08F00001FB50A4C02221423C8
:1013C000D101A4F580708DE80F000023064A07A123
:1013D000204600F0BFFC04B02046BDE8104000F0FD
:1013E0001FBD0000980B0020771200086D61696E28
:1013F0000000000070B5044C044D02E020688047F6
:10140000241DAC42FAD370BD5425000858250008AD
:1014100070B5044C044D02E020688047241DAC42A6
:10142000FAD370BD582500085C25000810B5FEF7FA
:10143000C7FE044A5188491C5180BDE81040FEF7A0
:10144000C3BE00004400002070B514460A4605469D
:10145000032100F0B9FA6C7205F11404AC610020AC
:101460006C61E86170BD2DE9FF470546DDF830800D
:1014700017460E004FF0FF306FD000F0ABFC044673
:1014800000202063FEF79CFE8146F80704D0E8693F
:1014900036EA000005D011E0B8070FD5E869304200
:1014A0000CD0B8F1000F03D0E8693040C8F8000054
:1014B00078074ED5E869B043E8614AE0039860B127
:1014C000E66384F8407005F114066D7A204600F05A
:1014D000BDFCDDB1012D1ED103E06FF001002063E2
:1014E00037E035680EE094F8351095F82120A5F125
:1014F0001400914205D204F11401143000F00CFAEA
:1015000002E02D68B542EED1B54204D104F11401D8
:10151000304600F001FA0398002809DD04F14C0080
:1015200003AA0021054600F055FD284600F092FD73
:101530004846FEF749FE00F06DFA206B00280CD1FA
:10154000FEF73EFE8146B8F1000F02D0E16BC8F80D
:1015500000104846FEF738FE206B04B0BDE8F08767
:101560002DE9F04105460C004FF0FF302BD000274D
:10157000FEF726FE8046E86905F114062043E8617F
:101580006C69B44216D12AE094F82C10A4F114002E
:10159000CA071AD0C16BEA6991431ED190F8401076
:1015A0002468490703D5E969C26B9143E96100F0FA
:1015B000F3FB0127B442E7D14046FEF705FE0FB129
:1015C00000F028FA0020BDE8F081890705D5C16B3D
:1015D000EA69114001D0C163E0E72468EAE74046C8
:1015E000FEF7F2FDEEE7000010B5FEF7E9FD094950
:1015F0004A88521E12B24A80002A07DC00224A8022
:10160000FEF7E2FDBDE8104000F004BABDE810406E
:10161000FEF7DABD4400002010B5FFF795FC0B483B
:1016200064210068B0FBF1F0401EB0F1807F09D268
:101630004FF0E021064A4861FF20107000208861C9
:1016400007200861BDE81040FFF7D4BE0800002065
:1016500023ED00E07047000070B52F4905462830A3
:1016600009682C1D11B18847002853D02BA0216C8C
:1016700000F034F92DA0616A00F030F92FA0A16AC2
:1016800000F02CF931A0E16A00F028F933A0216BB9
:1016900000F024F935A0616800F020F937A0A168B6
:1016A00000F01CF939A0E16800F018F93BA02169AD
:1016B00000F014F93DA0616900F010F93FA0A169A4
:1016C00000F00CF941A0E16900F008F943A0216A9B
:1016D00000F004F945A0616B00F000F947A0A16B90
:1016E00000F0FCF849A0E16B00F0F8F8287840071A
:1016F00006D500F06FFB014648A000F0EFF802E0CD
:101700004EA000F0EBF82878C00602D452A000F0FA
:10171000E5F8FEE770BD0000640000207073723AC7
:10172000203078253038780A000000007230303AD6
:10173000203078253038780A000000007230313AC5
:10174000203078253038780A000000007230323AB4
:10175000203078253038780A000000007230333AA3
:10176000203078253038780A000000007230343A92
:10177000203078253038780A000000007230353A81
:10178000203078253038780A000000007230363A70
:10179000203078253038780A000000007230373A5F
:1017A000203078253038780A000000007230383A4E
:1017B000203078253038780A000000007230393A3D
:1017C000203078253038780A000000007231303A35
:1017D000203078253038780A000000007231313A24
:1017E000203078253038780A000000007231323A13
:1017F000203078253038780A00000000206C723ADA
:10180000203078253038780A000000002070633AD4
:10181000203078253038780A000000006861726452
:10182000206661756C74206F6E20746872656164E7
:101830003A2025730D0A0D0A0000000068617264E9
:10184000206661756C74206F6E2068616E646C65D3
:10185000720D0A0D0A00000046505520616374693C
:101860007665210D0A00000070B50446121D22F0B5
:10187000070000220A4D443840F82250521C112A19
:10188000FAD3416200218162C16200F13402016336
:1018900082E81A004FF080730364016070BD00009D
:1018A000EFBEADDE10B5FEF78BFC044A1178491C83
:1018B0001170BDE81040FEF787BC0000100000204A
:1018C00010B5FEF77DFC044A1178491E1170BDE881
:1018D0001040FEF779BC0000100000200FB47F21FB
:1018E00010B503AB0448029A00F012FC0248FFF75F
:1018F000B1FE10BC5DF814FB180D002002685160A9
:1019000002680A60016048607047026851600268BE
:101910000A600160486070474268116042684A602E
:10192000416008607047D0E900124A60D0E90012B7
:10193000116040600060704710B50346CCB2042AC5
:101940001AD3810718D1194644EA042343EA034312
:1019500006E008C1103A08C141F8083B41F8043CD0
:10196000102AF6D201E008C1121F042AFBD20B464E
:1019700002E000BF03F8014B521EFBD210BD10B5B0
:10198000044600202072FEF71BFCF4E903124A60B3
:10199000D4E90012116064602460BDE81040FEF7D5
:1019A00013BC0000074A002102EB01131B7883429D
:1019B00002D102EB01107047491C0329F4DB00201F
:1019C00070470000140000202DE9F041044617463E
:1019D0000E460846FFF7E6FF054646F080002072F7
:1019E00008223946204600F0EDF8FEF7E9FB55F8ED
:1019F000041F0C344C60296821602C606560BDE8D0
:101A0000F041FEF7E1BB007A000601D501207047E6
:101A10000020704770B5FEF7D3FB114C0546608877
:101A2000B0B9A068FFF708FB0E49401E626851F884
:101A30003010143991420BD020700B48616000784F
:101A400001F11C01002802F11C0006D0FEF7BFFBCB
:101A50002846BDE87040FEF7B7BBFEF7B8FBF7E7D6
:101A600044000020980D00201000002010B504460E
:101A7000FEF7A6FB024694F834000E4920F00F0052
:101A8000401C84F8340094F8350001EBC00104F1E7
:101A900014004B6818604B68A36148600648616198
:101AA000A16B836819438160BDE810401046FEF7C2
:101AB0008BBB0000980D00204400002010B50446A8
:101AC000FEF77EFB04F11401D1E900235360D1E954
:101AD00000231A60A161616194F83520074951F82B
:101AE000323001EBC2018B4204D10549A36B8A68F5
:101AF0009A438A60BDE81040FEF766BB980D00204F
:101B00004400002008B509A0FFF7E8FE0AA0FFF78F
:101B1000E5FE12A0012300901A46032112A0FFF750
:101B2000DDFEBDE8084018A0FFF7D8BE0A205C2003
:101B30007C202F0A000000002D205254202D202050
:101B4000202020546872656164204F706572617452
:101B5000696E672053797374656D0A004E6F762045
:101B60003238203230313800202F207C205C202079
:101B700020202025642E25642E2564206275696C42
:101B8000642025730A0000002032303036202D20DA
:101B90003230313820436F7079726967687420621F
:101BA000792072742D746872656164207465616D4A
:101BB0000A000000014600E0491C0A78002AFBD117
:101BC000081A704710B5002A07D0034611F8014BD8
:101BD00003F8014B2CB1521EF8D110BD03F8011BC4
:101BE00000E00021521EF9D110BD000010B50A49D5
:101BF00000230A4C4B80184604EBC002401C526084
:101C000012600828F8DB0720087003484B600C308E
:101C10008B604060006010BD44000020980D0020E3
:101C200010B5074CA068FFF707FA0649401E51F8A7
:101C3000300014386060BDE810401C30FEF70DBB6A
:101C400044000020980D002001484060006070476B
:101C50005C0000207047000070B513480468FEF770
:101C6000AFFA05462046FFF729FF042084F8340028
:101C700004F14C0000F0C6F92046FFF7C4FE01282D
:101C800001D1A06F58B104F114010848FFF736FEE6
:101C90002846FEF799FABDE87040FFF7BBBE204624
:101CA000FFF76DFEF4E70000480000205000002020
:101CB00000F002F8FCE7000070B521E0FEF780FAC2
:101CC0000546FFF7EBF910B313480168A1F11404BE
:101CD000D1E900024260D1E9000210604960096068
:101CE000FFF7A4FBA16F09B1204688472046FFF704
:101CF0008AFE012809D0FFF777FC2846FEF764FA30
:101D0000FFF7CCF90028D9D170BDFFF76DFC28464C
:101D1000BDE87040FEF758BA500000201FB50948D2
:101D20002023072280218DE80F000023064A07A107
:101D3000803800F00FF804B00248BDE81040803849
:101D400000F06EB8980C0020B11C00087469646C37
:101D5000650000002DE9FF5F92460EAA0C4692E84E
:101D6000E0010A46994683460021FFF72DFE8DE8E3
:101D7000E0014B46524621465846FFF799F904B018
:101D800000F000B830BCBDE8C09F10B500F0C0F84E
:101D9000BDE8104000F024B870B5044690F8340057
:101DA00000F00F00022802D04FF0FF3070BDFEF7A8
:101DB00007FA054604F11400FFF7B5FD04F14C00E5
:101DC00000F08EF92846FEF7FFF92046FFF74EFE99
:101DD000002070BD014800687047000048000020E6
:101DE000F1B5FEF7EDF905460C480468204600F011
:101DF0002DF804F14C006A460021064600F0EAF88E
:101E0000304600F027F92846FEF7DEF9FFF702FE1C
:101E1000206B801C00D120630020F8BD480000200A
:101E200010B590F83610012280F835108A40022152
:101E3000826380F83410FFF7AFFF0348006808B1F1
:101E4000FFF7E8FD002010BD4800002070B50446F3
:101E500090F8340000F00F00012802D04FF0FF305E
:101E600070BDFEF7ADF9054694F8340020F00F0080
:101E7000801C84F834002046FFF720FE04F14C005B
:101E800000F02EF92846FEF79FF9002070BD10B52E
:101E900004466FF00100206304F11400FFF743FDD6
:101EA0002046FFF7E3FDBDE81040FFF7B3BD00009B
:101EB00070B5FEF785F906461348046894F83400B7
:101EC00000F00F00012819D1D4E90501884215D08E
:101ED00004F114000546FFF726FD94F835000B4980
:101EE00001EBC00041680D60416869604560286091
:101EF0003046FEF769F9FFF78DFD02E03046FEF748
:101F000063F9002070BD000048000020980D0020FB
:101F1000002802DA4FF0FF30704700EBC00101EB00
:101F2000001040F2E73101EB8000491C90FBF1F01A
:101F30007047000001480068704700000C00002056
:101F4000094810B50168491C0160FFF743FF816C27
:101F5000491E816403D1416C8164FFF7A9FFBDE88C
:101F6000104000F003B800000C0000202DE9F04103
:101F7000FFF7E0FF0646FEF723F90746144D1EE083
:101F800060696FF00041301A143C88421AD2204632
:101F9000FFF7C8F8D4E907108847FFF7CBFF0646DC
:101FA000607A810708D5C10706D020F00100607271
:101FB000204600F04FF802E020F0010060722C682B
:101FC000AC42DDD13846BDE8F041FEF7FDB8000077
:101FD0005C00002049B1012904D0022908D003295E
:101FE0000ED109E0406A10600AE01168416207E022
:101FF000417A21F0020102E0417A41F0020141728E
:102000000020704770B50546FEF7DAF8044628460A
:10201000FFF788F82046FEF7D7F82846FFF7AFFC11
:10202000002070BD2DE9F0411746DDE906580A464B
:102030001E4604460921FFF7C7FC28F00101617222
:102040000021C4E90951C4E90776143464602460AE
:10205000BDE8F081F8B50446FEF7B2F80546204623
:10206000FFF760F8607A20F0010060722846FEF702
:10207000ABF8FFF75FFF616A0844A062FEF7A0F8C3
:102080000546164A0020009202EBC00269465368DA
:102090006FF0004C5DF820200BE01268A2EBC00648
:1020A0007769A66AB74202D0BE1B664503D341F8E2
:1020B00020209A42F1D10948001F0168491C0160A3
:1020C00004F114010098FFF720FC607A40F0010051
:1020D00060722846FEF778F80020F8BD5C0000200A
:1020E00070B50446407AC0070ED0FEF769F8054681
:1020F0002046FFF717F82846FEF766F8607A20F0CA
:1021000001006072002070BD4FF0FF3070BD000014
:102110002DE9FF4F471804467F1E83B080464FF0DD
:10212000FF394FF0200A4FF0250BA74200D24F464F
:1021300008E1252803D0BC4200D8207081E00026A9
:102140000599491C059108782D2811D02B2812D00B
:10215000202813D0232814D0302815D00A784D46D3
:10216000303A0A2A13D205A800F02CF905461AE0E5
:1021700046F01006E4E746F00406E1E746F00806FC
:10218000DEE746F02006DBE746F00106D8E72A281E
:1021900009D10698491C059120C80690002D02DA45
:1021A0006D4246F01006CDF80090059801782E2972
:1021B00018D1401C05900178A1F130020A2A04D2FE
:1021C00005A800F0FFF8009008E02A2908D1401C7B
:1021D0000590069802C8069000910846002801DA8A
:1021E00000200090059A00201178682901D06C2900
:1021F00002D1521C0846059211780A236F296ED02D
:102200000CDC63291FD004DC252979D058290DD195
:102210007FE0642901D0692908D17EE0702960D06F
:1022200073292CD075297AD0782974D0BC4201D872
:1022300084F800B00598641C0178D1B3BC4200D882
:102240002170641C7BE0F00608D450466D1E002D02
:1022500004DDBC4200D82070641CF7E70698BC423D
:1022600010F8041B069000D82170504602E0BC42D2
:1022700000D82070641C6D1E002DF8DC5FE006980D
:1022800008C8069003B93DA31846FFF793FC0099D0
:10229000002902DD884200DD0846F1060AD45146D5
:1022A0002A466D1E824205DDBC4200D82170641CA6
:1022B000F6E750E0002106E0BC4201D81A7822700F
:1022C000491C5B1C641C8142F6DB524629466D1E8C
:1022D000814234DDBC4200D82270641CF6E716E06F
:1022E0000EE0681C02D1082546F00106009802960F
:1022F000CDE9005006981023394604C806901AE02C
:10230000BC429ED884F800B09BE708E003E00823B5
:1023100005E046F04006102301E046F002066C2876
:1023200001D068281AD0069804C80690009839464B
:10233000CDE9005002962046FEF7A4FF044605981A
:10234000401C05900598007800287FF4F2AEBC424E
:102350000DD820700CE0401E0590F0E7069830F88C
:10236000041B06908AB2B007E0D512B2DEE73870DF
:1023700007B0A4EB080000F005B80000284E554C4B
:102380004C29000030BCBDE8C08F00207047002001
:102390007047002070470020704710B5FDF710FF10
:1023A000FFF73AF9FFF7AEFBFFF74EFCFFF71EFC15
:1023B000FFF702F8FFF74EFCFFF7B0FCFFF730FC29
:1023C000002010BD10B5014600206FF02F0307E07C
:1023D000541C0C60127800EB800003EB40001044AA
:1023E0000A681478303C0A2CF2D310BD00000000BB
:1023F000000000000102030406070809A08601008E
:10240000400D0300801A060000350C0040420F000A
:1024100080841E0000093D0000127A000024F400B0
:1024200000366E010048E801006CDC02000001008B
:10243000020001000300010002000100040001008D
:10244000020001000300010002000100050001007C
:10245000020001000300010002000100040001006D
:10246000020001000300010002000100060001005B
:10247000020001000300010002000100040001004D
:10248000020001000300010002000100050001003C
:10249000020001000300010002000100040001002D
:1024A000020001000300010002000100070001001A
:1024B000020001000300010002000100040001000D
:1024C00002000100030001000200010005000100FC
:1024D00002000100030001000200010004000100ED
:1024E00002000100030001000200010006000100DB
:1024F00002000100030001000200010004000100CD
:1025000002000100030001000200010005000100BB
:1025100002000100030001000200010004000100AC
:1025200002000100030001000200010030313233DB
:10253000343536373839616263646566003031326C
:10254000333435363738394142434445460000007C
:10255000972300088F2300088B230008932300088B
:102560008025000800000020740000007C10000896
:10257000F425000874000020641100008C1000088D
:10258000E80300000000000000093D00000000001A
:1025900000000000000000001800002018000020CB
:1025A0008000000003000000280000202800002018
:1025B0002000000009000000380000203800002042
:1025C0002C000000000000000000000000000000DF
:1025D00000000000000000000000000000000000FB
:1025E00000000000000000000000000000000000EB
:0425F00000000000E7
:040000050800018965
:00000001FF
